{
	"Assignment Contract.sol": {
		"EvenOddRefund": {
			"abi": [
				{
					"inputs": [
						{
							"internalType": "uint256",
							"name": "number",
							"type": "uint256"
						}
					],
					"name": "processNumber",
					"outputs": [],
					"stateMutability": "payable",
					"type": "function"
				},
				{
					"stateMutability": "payable",
					"type": "receive"
				}
			],
			"devdoc": {
				"kind": "dev",
				"methods": {},
				"version": 1
			},
			"evm": {
				"assembly": "    /* \"Assignment Contract.sol\":88:898  contract EvenOddRefund {... */\n  mstore(0x40, 0x80)\n  callvalue\n  dup1\n  iszero\n  tag_1\n  jumpi\n  0x00\n  dup1\n  revert\ntag_1:\n  pop\n  dataSize(sub_0)\n  dup1\n  dataOffset(sub_0)\n  0x00\n  codecopy\n  0x00\n  return\nstop\n\nsub_0: assembly {\n        /* \"Assignment Contract.sol\":88:898  contract EvenOddRefund {... */\n      mstore(0x40, 0x80)\n      jumpi(tag_1, lt(calldatasize, 0x04))\n      shr(0xe0, calldataload(0x00))\n      dup1\n      0x8bf709cf\n      eq\n      tag_3\n      jumpi\n      jump(tag_2)\n    tag_1:\n      jumpi(tag_2, calldatasize)\n      stop\n    tag_2:\n      0x00\n      dup1\n      revert\n        /* \"Assignment Contract.sol\":182:807  function processNumber(uint256 number) external payable {... */\n    tag_3:\n      tag_6\n      0x04\n      dup1\n      calldatasize\n      sub\n      dup2\n      add\n      swap1\n      tag_7\n      swap2\n      swap1\n      tag_8\n      jump\t// in\n    tag_7:\n      tag_9\n      jump\t// in\n    tag_6:\n      stop\n    tag_9:\n        /* \"Assignment Contract.sol\":317:318  9 */\n      0x09\n        /* \"Assignment Contract.sol\":307:313  number */\n      dup2\n        /* \"Assignment Contract.sol\":307:318  number == 9 */\n      sub\n        /* \"Assignment Contract.sol\":303:370  if (number == 9) {... */\n      tag_11\n      jumpi\n        /* \"Assignment Contract.sol\":334:359  revert(\"We don't like 9\") */\n      mload(0x40)\n      0x08c379a000000000000000000000000000000000000000000000000000000000\n      dup2\n      mstore\n      0x04\n      add\n      tag_12\n      swap1\n      tag_13\n      jump\t// in\n    tag_12:\n      mload(0x40)\n      dup1\n      swap2\n      sub\n      swap1\n      revert\n        /* \"Assignment Contract.sol\":303:370  if (number == 9) {... */\n    tag_11:\n        /* \"Assignment Contract.sol\":380:400  uint256 refundAmount */\n      0x00\n        /* \"Assignment Contract.sol\":464:465  0 */\n      dup1\n        /* \"Assignment Contract.sol\":459:460  2 */\n      0x02\n        /* \"Assignment Contract.sol\":450:456  number */\n      dup4\n        /* \"Assignment Contract.sol\":450:460  number % 2 */\n      tag_14\n      swap2\n      swap1\n      tag_15\n      jump\t// in\n    tag_14:\n        /* \"Assignment Contract.sol\":450:465  number % 2 == 0 */\n      sub\n        /* \"Assignment Contract.sol\":446:661  if (number % 2 == 0) {... */\n      tag_16\n      jumpi\n        /* \"Assignment Contract.sol\":553:554  2 */\n      0x02\n        /* \"Assignment Contract.sol\":541:550  msg.value */\n      callvalue\n        /* \"Assignment Contract.sol\":541:554  msg.value / 2 */\n      tag_17\n      swap2\n      swap1\n      tag_18\n      jump\t// in\n    tag_17:\n        /* \"Assignment Contract.sol\":526:554  refundAmount = msg.value / 2 */\n      swap1\n      pop\n        /* \"Assignment Contract.sol\":446:661  if (number % 2 == 0) {... */\n      jump(tag_19)\n    tag_16:\n        /* \"Assignment Contract.sol\":641:650  msg.value */\n      callvalue\n        /* \"Assignment Contract.sol\":626:650  refundAmount = msg.value */\n      swap1\n      pop\n        /* \"Assignment Contract.sol\":446:661  if (number % 2 == 0) {... */\n    tag_19:\n        /* \"Assignment Contract.sol\":699:711  bool success */\n      0x00\n        /* \"Assignment Contract.sol\":717:727  msg.sender */\n      caller\n        /* \"Assignment Contract.sol\":717:732  msg.sender.call */\n      0xffffffffffffffffffffffffffffffffffffffff\n      and\n        /* \"Assignment Contract.sol\":740:752  refundAmount */\n      dup3\n        /* \"Assignment Contract.sol\":717:757  msg.sender.call{value: refundAmount}(\"\") */\n      mload(0x40)\n      tag_20\n      swap1\n      tag_21\n      jump\t// in\n    tag_20:\n      0x00\n      mload(0x40)\n      dup1\n      dup4\n      sub\n      dup2\n      dup6\n      dup8\n      gas\n      call\n      swap3\n      pop\n      pop\n      pop\n      returndatasize\n      dup1\n      0x00\n      dup2\n      eq\n      tag_24\n      jumpi\n      mload(0x40)\n      swap2\n      pop\n      and(add(returndatasize, 0x3f), not(0x1f))\n      dup3\n      add\n      0x40\n      mstore\n      returndatasize\n      dup3\n      mstore\n      returndatasize\n      0x00\n      0x20\n      dup5\n      add\n      returndatacopy\n      jump(tag_23)\n    tag_24:\n      0x60\n      swap2\n      pop\n    tag_23:\n      pop\n        /* \"Assignment Contract.sol\":698:757  (bool success, ) = msg.sender.call{value: refundAmount}(\"\") */\n      pop\n      swap1\n      pop\n        /* \"Assignment Contract.sol\":775:782  success */\n      dup1\n        /* \"Assignment Contract.sol\":767:800  require(success, \"Refund failed\") */\n      tag_25\n      jumpi\n      mload(0x40)\n      0x08c379a000000000000000000000000000000000000000000000000000000000\n      dup2\n      mstore\n      0x04\n      add\n      tag_26\n      swap1\n      tag_27\n      jump\t// in\n    tag_26:\n      mload(0x40)\n      dup1\n      swap2\n      sub\n      swap1\n      revert\n    tag_25:\n        /* \"Assignment Contract.sol\":238:807  {... */\n      pop\n      pop\n        /* \"Assignment Contract.sol\":182:807  function processNumber(uint256 number) external payable {... */\n      pop\n      jump\t// out\n        /* \"#utility.yul\":88:205   */\n    tag_29:\n        /* \"#utility.yul\":197:198   */\n      0x00\n        /* \"#utility.yul\":194:195   */\n      dup1\n        /* \"#utility.yul\":187:199   */\n      revert\n        /* \"#utility.yul\":334:411   */\n    tag_31:\n        /* \"#utility.yul\":371:378   */\n      0x00\n        /* \"#utility.yul\":400:405   */\n      dup2\n        /* \"#utility.yul\":389:405   */\n      swap1\n      pop\n        /* \"#utility.yul\":334:411   */\n      swap2\n      swap1\n      pop\n      jump\t// out\n        /* \"#utility.yul\":417:539   */\n    tag_32:\n        /* \"#utility.yul\":490:514   */\n      tag_50\n        /* \"#utility.yul\":508:513   */\n      dup2\n        /* \"#utility.yul\":490:514   */\n      tag_31\n      jump\t// in\n    tag_50:\n        /* \"#utility.yul\":483:488   */\n      dup2\n        /* \"#utility.yul\":480:515   */\n      eq\n        /* \"#utility.yul\":470:533   */\n      tag_51\n      jumpi\n        /* \"#utility.yul\":529:530   */\n      0x00\n        /* \"#utility.yul\":526:527   */\n      dup1\n        /* \"#utility.yul\":519:531   */\n      revert\n        /* \"#utility.yul\":470:533   */\n    tag_51:\n        /* \"#utility.yul\":417:539   */\n      pop\n      jump\t// out\n        /* \"#utility.yul\":545:684   */\n    tag_33:\n        /* \"#utility.yul\":591:596   */\n      0x00\n        /* \"#utility.yul\":629:635   */\n      dup2\n        /* \"#utility.yul\":616:636   */\n      calldataload\n        /* \"#utility.yul\":607:636   */\n      swap1\n      pop\n        /* \"#utility.yul\":645:678   */\n      tag_53\n        /* \"#utility.yul\":672:677   */\n      dup2\n        /* \"#utility.yul\":645:678   */\n      tag_32\n      jump\t// in\n    tag_53:\n        /* \"#utility.yul\":545:684   */\n      swap3\n      swap2\n      pop\n      pop\n      jump\t// out\n        /* \"#utility.yul\":690:1019   */\n    tag_8:\n        /* \"#utility.yul\":749:755   */\n      0x00\n        /* \"#utility.yul\":798:800   */\n      0x20\n        /* \"#utility.yul\":786:795   */\n      dup3\n        /* \"#utility.yul\":777:784   */\n      dup5\n        /* \"#utility.yul\":773:796   */\n      sub\n        /* \"#utility.yul\":769:801   */\n      slt\n        /* \"#utility.yul\":766:885   */\n      iszero\n      tag_55\n      jumpi\n        /* \"#utility.yul\":804:883   */\n      tag_56\n      tag_29\n      jump\t// in\n    tag_56:\n        /* \"#utility.yul\":766:885   */\n    tag_55:\n        /* \"#utility.yul\":924:925   */\n      0x00\n        /* \"#utility.yul\":949:1002   */\n      tag_57\n        /* \"#utility.yul\":994:1001   */\n      dup5\n        /* \"#utility.yul\":985:991   */\n      dup3\n        /* \"#utility.yul\":974:983   */\n      dup6\n        /* \"#utility.yul\":970:992   */\n      add\n        /* \"#utility.yul\":949:1002   */\n      tag_33\n      jump\t// in\n    tag_57:\n        /* \"#utility.yul\":939:1002   */\n      swap2\n      pop\n        /* \"#utility.yul\":895:1012   */\n      pop\n        /* \"#utility.yul\":690:1019   */\n      swap3\n      swap2\n      pop\n      pop\n      jump\t// out\n        /* \"#utility.yul\":1025:1194   */\n    tag_34:\n        /* \"#utility.yul\":1109:1120   */\n      0x00\n        /* \"#utility.yul\":1143:1149   */\n      dup3\n        /* \"#utility.yul\":1138:1141   */\n      dup3\n        /* \"#utility.yul\":1131:1150   */\n      mstore\n        /* \"#utility.yul\":1183:1187   */\n      0x20\n        /* \"#utility.yul\":1178:1181   */\n      dup3\n        /* \"#utility.yul\":1174:1188   */\n      add\n        /* \"#utility.yul\":1159:1188   */\n      swap1\n      pop\n        /* \"#utility.yul\":1025:1194   */\n      swap3\n      swap2\n      pop\n      pop\n      jump\t// out\n        /* \"#utility.yul\":1200:1365   */\n    tag_35:\n        /* \"#utility.yul\":1340:1357   */\n      0x576520646f6e2774206c696b6520390000000000000000000000000000000000\n        /* \"#utility.yul\":1336:1337   */\n      0x00\n        /* \"#utility.yul\":1328:1334   */\n      dup3\n        /* \"#utility.yul\":1324:1338   */\n      add\n        /* \"#utility.yul\":1317:1358   */\n      mstore\n        /* \"#utility.yul\":1200:1365   */\n      pop\n      jump\t// out\n        /* \"#utility.yul\":1371:1737   */\n    tag_36:\n        /* \"#utility.yul\":1513:1516   */\n      0x00\n        /* \"#utility.yul\":1534:1601   */\n      tag_61\n        /* \"#utility.yul\":1598:1600   */\n      0x0f\n        /* \"#utility.yul\":1593:1596   */\n      dup4\n        /* \"#utility.yul\":1534:1601   */\n      tag_34\n      jump\t// in\n    tag_61:\n        /* \"#utility.yul\":1527:1601   */\n      swap2\n      pop\n        /* \"#utility.yul\":1610:1703   */\n      tag_62\n        /* \"#utility.yul\":1699:1702   */\n      dup3\n        /* \"#utility.yul\":1610:1703   */\n      tag_35\n      jump\t// in\n    tag_62:\n        /* \"#utility.yul\":1728:1730   */\n      0x20\n        /* \"#utility.yul\":1723:1726   */\n      dup3\n        /* \"#utility.yul\":1719:1731   */\n      add\n        /* \"#utility.yul\":1712:1731   */\n      swap1\n      pop\n        /* \"#utility.yul\":1371:1737   */\n      swap2\n      swap1\n      pop\n      jump\t// out\n        /* \"#utility.yul\":1743:2162   */\n    tag_13:\n        /* \"#utility.yul\":1909:1913   */\n      0x00\n        /* \"#utility.yul\":1947:1949   */\n      0x20\n        /* \"#utility.yul\":1936:1945   */\n      dup3\n        /* \"#utility.yul\":1932:1950   */\n      add\n        /* \"#utility.yul\":1924:1950   */\n      swap1\n      pop\n        /* \"#utility.yul\":1996:2005   */\n      dup2\n        /* \"#utility.yul\":1990:1994   */\n      dup2\n        /* \"#utility.yul\":1986:2006   */\n      sub\n        /* \"#utility.yul\":1982:1983   */\n      0x00\n        /* \"#utility.yul\":1971:1980   */\n      dup4\n        /* \"#utility.yul\":1967:1984   */\n      add\n        /* \"#utility.yul\":1960:2007   */\n      mstore\n        /* \"#utility.yul\":2024:2155   */\n      tag_64\n        /* \"#utility.yul\":2150:2154   */\n      dup2\n        /* \"#utility.yul\":2024:2155   */\n      tag_36\n      jump\t// in\n    tag_64:\n        /* \"#utility.yul\":2016:2155   */\n      swap1\n      pop\n        /* \"#utility.yul\":1743:2162   */\n      swap2\n      swap1\n      pop\n      jump\t// out\n        /* \"#utility.yul\":2168:2348   */\n    tag_37:\n        /* \"#utility.yul\":2216:2293   */\n      0x4e487b7100000000000000000000000000000000000000000000000000000000\n        /* \"#utility.yul\":2213:2214   */\n      0x00\n        /* \"#utility.yul\":2206:2294   */\n      mstore\n        /* \"#utility.yul\":2313:2317   */\n      0x12\n        /* \"#utility.yul\":2310:2311   */\n      0x04\n        /* \"#utility.yul\":2303:2318   */\n      mstore\n        /* \"#utility.yul\":2337:2341   */\n      0x24\n        /* \"#utility.yul\":2334:2335   */\n      0x00\n        /* \"#utility.yul\":2327:2342   */\n      revert\n        /* \"#utility.yul\":2354:2530   */\n    tag_15:\n        /* \"#utility.yul\":2386:2387   */\n      0x00\n        /* \"#utility.yul\":2403:2423   */\n      tag_67\n        /* \"#utility.yul\":2421:2422   */\n      dup3\n        /* \"#utility.yul\":2403:2423   */\n      tag_31\n      jump\t// in\n    tag_67:\n        /* \"#utility.yul\":2398:2423   */\n      swap2\n      pop\n        /* \"#utility.yul\":2437:2457   */\n      tag_68\n        /* \"#utility.yul\":2455:2456   */\n      dup4\n        /* \"#utility.yul\":2437:2457   */\n      tag_31\n      jump\t// in\n    tag_68:\n        /* \"#utility.yul\":2432:2457   */\n      swap3\n      pop\n        /* \"#utility.yul\":2476:2477   */\n      dup3\n        /* \"#utility.yul\":2466:2501   */\n      tag_69\n      jumpi\n        /* \"#utility.yul\":2481:2499   */\n      tag_70\n      tag_37\n      jump\t// in\n    tag_70:\n        /* \"#utility.yul\":2466:2501   */\n    tag_69:\n        /* \"#utility.yul\":2522:2523   */\n      dup3\n        /* \"#utility.yul\":2519:2520   */\n      dup3\n        /* \"#utility.yul\":2515:2524   */\n      mod\n        /* \"#utility.yul\":2510:2524   */\n      swap1\n      pop\n        /* \"#utility.yul\":2354:2530   */\n      swap3\n      swap2\n      pop\n      pop\n      jump\t// out\n        /* \"#utility.yul\":2722:2907   */\n    tag_18:\n        /* \"#utility.yul\":2762:2763   */\n      0x00\n        /* \"#utility.yul\":2779:2799   */\n      tag_73\n        /* \"#utility.yul\":2797:2798   */\n      dup3\n        /* \"#utility.yul\":2779:2799   */\n      tag_31\n      jump\t// in\n    tag_73:\n        /* \"#utility.yul\":2774:2799   */\n      swap2\n      pop\n        /* \"#utility.yul\":2813:2833   */\n      tag_74\n        /* \"#utility.yul\":2831:2832   */\n      dup4\n        /* \"#utility.yul\":2813:2833   */\n      tag_31\n      jump\t// in\n    tag_74:\n        /* \"#utility.yul\":2808:2833   */\n      swap3\n      pop\n        /* \"#utility.yul\":2852:2853   */\n      dup3\n        /* \"#utility.yul\":2842:2877   */\n      tag_75\n      jumpi\n        /* \"#utility.yul\":2857:2875   */\n      tag_76\n      tag_37\n      jump\t// in\n    tag_76:\n        /* \"#utility.yul\":2842:2877   */\n    tag_75:\n        /* \"#utility.yul\":2899:2900   */\n      dup3\n        /* \"#utility.yul\":2896:2897   */\n      dup3\n        /* \"#utility.yul\":2892:2901   */\n      div\n        /* \"#utility.yul\":2887:2901   */\n      swap1\n      pop\n        /* \"#utility.yul\":2722:2907   */\n      swap3\n      swap2\n      pop\n      pop\n      jump\t// out\n        /* \"#utility.yul\":2913:3060   */\n    tag_39:\n        /* \"#utility.yul\":3014:3025   */\n      0x00\n        /* \"#utility.yul\":3051:3054   */\n      dup2\n        /* \"#utility.yul\":3036:3054   */\n      swap1\n      pop\n        /* \"#utility.yul\":2913:3060   */\n      swap3\n      swap2\n      pop\n      pop\n      jump\t// out\n        /* \"#utility.yul\":3066:3180   */\n    tag_40:\n      pop\n      jump\t// out\n        /* \"#utility.yul\":3186:3584   */\n    tag_41:\n        /* \"#utility.yul\":3345:3348   */\n      0x00\n        /* \"#utility.yul\":3366:3449   */\n      tag_80\n        /* \"#utility.yul\":3447:3448   */\n      0x00\n        /* \"#utility.yul\":3442:3445   */\n      dup4\n        /* \"#utility.yul\":3366:3449   */\n      tag_39\n      jump\t// in\n    tag_80:\n        /* \"#utility.yul\":3359:3449   */\n      swap2\n      pop\n        /* \"#utility.yul\":3458:3551   */\n      tag_81\n        /* \"#utility.yul\":3547:3550   */\n      dup3\n        /* \"#utility.yul\":3458:3551   */\n      tag_40\n      jump\t// in\n    tag_81:\n        /* \"#utility.yul\":3576:3577   */\n      0x00\n        /* \"#utility.yul\":3571:3574   */\n      dup3\n        /* \"#utility.yul\":3567:3578   */\n      add\n        /* \"#utility.yul\":3560:3578   */\n      swap1\n      pop\n        /* \"#utility.yul\":3186:3584   */\n      swap2\n      swap1\n      pop\n      jump\t// out\n        /* \"#utility.yul\":3590:3969   */\n    tag_21:\n        /* \"#utility.yul\":3774:3777   */\n      0x00\n        /* \"#utility.yul\":3796:3943   */\n      tag_83\n        /* \"#utility.yul\":3939:3942   */\n      dup3\n        /* \"#utility.yul\":3796:3943   */\n      tag_41\n      jump\t// in\n    tag_83:\n        /* \"#utility.yul\":3789:3943   */\n      swap2\n      pop\n        /* \"#utility.yul\":3960:3963   */\n      dup2\n        /* \"#utility.yul\":3953:3963   */\n      swap1\n      pop\n        /* \"#utility.yul\":3590:3969   */\n      swap2\n      swap1\n      pop\n      jump\t// out\n        /* \"#utility.yul\":3975:4138   */\n    tag_42:\n        /* \"#utility.yul\":4115:4130   */\n      0x526566756e64206661696c656400000000000000000000000000000000000000\n        /* \"#utility.yul\":4111:4112   */\n      0x00\n        /* \"#utility.yul\":4103:4109   */\n      dup3\n        /* \"#utility.yul\":4099:4113   */\n      add\n        /* \"#utility.yul\":4092:4131   */\n      mstore\n        /* \"#utility.yul\":3975:4138   */\n      pop\n      jump\t// out\n        /* \"#utility.yul\":4144:4510   */\n    tag_43:\n        /* \"#utility.yul\":4286:4289   */\n      0x00\n        /* \"#utility.yul\":4307:4374   */\n      tag_86\n        /* \"#utility.yul\":4371:4373   */\n      0x0d\n        /* \"#utility.yul\":4366:4369   */\n      dup4\n        /* \"#utility.yul\":4307:4374   */\n      tag_34\n      jump\t// in\n    tag_86:\n        /* \"#utility.yul\":4300:4374   */\n      swap2\n      pop\n        /* \"#utility.yul\":4383:4476   */\n      tag_87\n        /* \"#utility.yul\":4472:4475   */\n      dup3\n        /* \"#utility.yul\":4383:4476   */\n      tag_42\n      jump\t// in\n    tag_87:\n        /* \"#utility.yul\":4501:4503   */\n      0x20\n        /* \"#utility.yul\":4496:4499   */\n      dup3\n        /* \"#utility.yul\":4492:4504   */\n      add\n        /* \"#utility.yul\":4485:4504   */\n      swap1\n      pop\n        /* \"#utility.yul\":4144:4510   */\n      swap2\n      swap1\n      pop\n      jump\t// out\n        /* \"#utility.yul\":4516:4935   */\n    tag_27:\n        /* \"#utility.yul\":4682:4686   */\n      0x00\n        /* \"#utility.yul\":4720:4722   */\n      0x20\n        /* \"#utility.yul\":4709:4718   */\n      dup3\n        /* \"#utility.yul\":4705:4723   */\n      add\n        /* \"#utility.yul\":4697:4723   */\n      swap1\n      pop\n        /* \"#utility.yul\":4769:4778   */\n      dup2\n        /* \"#utility.yul\":4763:4767   */\n      dup2\n        /* \"#utility.yul\":4759:4779   */\n      sub\n        /* \"#utility.yul\":4755:4756   */\n      0x00\n        /* \"#utility.yul\":4744:4753   */\n      dup4\n        /* \"#utility.yul\":4740:4757   */\n      add\n        /* \"#utility.yul\":4733:4780   */\n      mstore\n        /* \"#utility.yul\":4797:4928   */\n      tag_89\n        /* \"#utility.yul\":4923:4927   */\n      dup2\n        /* \"#utility.yul\":4797:4928   */\n      tag_43\n      jump\t// in\n    tag_89:\n        /* \"#utility.yul\":4789:4928   */\n      swap1\n      pop\n        /* \"#utility.yul\":4516:4935   */\n      swap2\n      swap1\n      pop\n      jump\t// out\n\n    auxdata: 0xa2646970667358221220cb05607117153679792a1b109c3a01beb79447d6aef4c07ff9800b79f7c538f064736f6c634300081a0033\n}\n",
				"bytecode": {
					"linkReferences": {},
					"object": "6080604052348015600e575f80fd5b506103aa8061001c5f395ff3fe608060405260043610610021575f3560e01c80638bf709cf1461002c57610028565b3661002857005b5f80fd5b6100466004803603810190610041919061019b565b610048565b005b6009810361008b576040517f08c379a000000000000000000000000000000000000000000000000000000000815260040161008290610220565b60405180910390fd5b5f8060028361009a919061026b565b036100b3576002346100ac919061029b565b90506100b7565b3490505b5f3373ffffffffffffffffffffffffffffffffffffffff16826040516100dc906102f8565b5f6040518083038185875af1925050503d805f8114610116576040519150601f19603f3d011682016040523d82523d5f602084013e61011b565b606091505b505090508061015f576040517f08c379a000000000000000000000000000000000000000000000000000000000815260040161015690610356565b60405180910390fd5b505050565b5f80fd5b5f819050919050565b61017a81610168565b8114610184575f80fd5b50565b5f8135905061019581610171565b92915050565b5f602082840312156101b0576101af610164565b5b5f6101bd84828501610187565b91505092915050565b5f82825260208201905092915050565b7f576520646f6e2774206c696b65203900000000000000000000000000000000005f82015250565b5f61020a600f836101c6565b9150610215826101d6565b602082019050919050565b5f6020820190508181035f830152610237816101fe565b9050919050565b7f4e487b71000000000000000000000000000000000000000000000000000000005f52601260045260245ffd5b5f61027582610168565b915061028083610168565b9250826102905761028f61023e565b5b828206905092915050565b5f6102a582610168565b91506102b083610168565b9250826102c0576102bf61023e565b5b828204905092915050565b5f81905092915050565b50565b5f6102e35f836102cb565b91506102ee826102d5565b5f82019050919050565b5f610302826102d8565b9150819050919050565b7f526566756e64206661696c6564000000000000000000000000000000000000005f82015250565b5f610340600d836101c6565b915061034b8261030c565b602082019050919050565b5f6020820190508181035f83015261036d81610334565b905091905056fea2646970667358221220cb05607117153679792a1b109c3a01beb79447d6aef4c07ff9800b79f7c538f064736f6c634300081a0033",
					"opcodes": "PUSH1 0x80 PUSH1 0x40 MSTORE CALLVALUE DUP1 ISZERO PUSH1 0xE JUMPI PUSH0 DUP1 REVERT JUMPDEST POP PUSH2 0x3AA DUP1 PUSH2 0x1C PUSH0 CODECOPY PUSH0 RETURN INVALID PUSH1 0x80 PUSH1 0x40 MSTORE PUSH1 0x4 CALLDATASIZE LT PUSH2 0x21 JUMPI PUSH0 CALLDATALOAD PUSH1 0xE0 SHR DUP1 PUSH4 0x8BF709CF EQ PUSH2 0x2C JUMPI PUSH2 0x28 JUMP JUMPDEST CALLDATASIZE PUSH2 0x28 JUMPI STOP JUMPDEST PUSH0 DUP1 REVERT JUMPDEST PUSH2 0x46 PUSH1 0x4 DUP1 CALLDATASIZE SUB DUP2 ADD SWAP1 PUSH2 0x41 SWAP2 SWAP1 PUSH2 0x19B JUMP JUMPDEST PUSH2 0x48 JUMP JUMPDEST STOP JUMPDEST PUSH1 0x9 DUP2 SUB PUSH2 0x8B JUMPI PUSH1 0x40 MLOAD PUSH32 0x8C379A000000000000000000000000000000000000000000000000000000000 DUP2 MSTORE PUSH1 0x4 ADD PUSH2 0x82 SWAP1 PUSH2 0x220 JUMP JUMPDEST PUSH1 0x40 MLOAD DUP1 SWAP2 SUB SWAP1 REVERT JUMPDEST PUSH0 DUP1 PUSH1 0x2 DUP4 PUSH2 0x9A SWAP2 SWAP1 PUSH2 0x26B JUMP JUMPDEST SUB PUSH2 0xB3 JUMPI PUSH1 0x2 CALLVALUE PUSH2 0xAC SWAP2 SWAP1 PUSH2 0x29B JUMP JUMPDEST SWAP1 POP PUSH2 0xB7 JUMP JUMPDEST CALLVALUE SWAP1 POP JUMPDEST PUSH0 CALLER PUSH20 0xFFFFFFFFFFFFFFFFFFFFFFFFFFFFFFFFFFFFFFFF AND DUP3 PUSH1 0x40 MLOAD PUSH2 0xDC SWAP1 PUSH2 0x2F8 JUMP JUMPDEST PUSH0 PUSH1 0x40 MLOAD DUP1 DUP4 SUB DUP2 DUP6 DUP8 GAS CALL SWAP3 POP POP POP RETURNDATASIZE DUP1 PUSH0 DUP2 EQ PUSH2 0x116 JUMPI PUSH1 0x40 MLOAD SWAP2 POP PUSH1 0x1F NOT PUSH1 0x3F RETURNDATASIZE ADD AND DUP3 ADD PUSH1 0x40 MSTORE RETURNDATASIZE DUP3 MSTORE RETURNDATASIZE PUSH0 PUSH1 0x20 DUP5 ADD RETURNDATACOPY PUSH2 0x11B JUMP JUMPDEST PUSH1 0x60 SWAP2 POP JUMPDEST POP POP SWAP1 POP DUP1 PUSH2 0x15F JUMPI PUSH1 0x40 MLOAD PUSH32 0x8C379A000000000000000000000000000000000000000000000000000000000 DUP2 MSTORE PUSH1 0x4 ADD PUSH2 0x156 SWAP1 PUSH2 0x356 JUMP JUMPDEST PUSH1 0x40 MLOAD DUP1 SWAP2 SUB SWAP1 REVERT JUMPDEST POP POP POP JUMP JUMPDEST PUSH0 DUP1 REVERT JUMPDEST PUSH0 DUP2 SWAP1 POP SWAP2 SWAP1 POP JUMP JUMPDEST PUSH2 0x17A DUP2 PUSH2 0x168 JUMP JUMPDEST DUP2 EQ PUSH2 0x184 JUMPI PUSH0 DUP1 REVERT JUMPDEST POP JUMP JUMPDEST PUSH0 DUP2 CALLDATALOAD SWAP1 POP PUSH2 0x195 DUP2 PUSH2 0x171 JUMP JUMPDEST SWAP3 SWAP2 POP POP JUMP JUMPDEST PUSH0 PUSH1 0x20 DUP3 DUP5 SUB SLT ISZERO PUSH2 0x1B0 JUMPI PUSH2 0x1AF PUSH2 0x164 JUMP JUMPDEST JUMPDEST PUSH0 PUSH2 0x1BD DUP5 DUP3 DUP6 ADD PUSH2 0x187 JUMP JUMPDEST SWAP2 POP POP SWAP3 SWAP2 POP POP JUMP JUMPDEST PUSH0 DUP3 DUP3 MSTORE PUSH1 0x20 DUP3 ADD SWAP1 POP SWAP3 SWAP2 POP POP JUMP JUMPDEST PUSH32 0x576520646F6E2774206C696B6520390000000000000000000000000000000000 PUSH0 DUP3 ADD MSTORE POP JUMP JUMPDEST PUSH0 PUSH2 0x20A PUSH1 0xF DUP4 PUSH2 0x1C6 JUMP JUMPDEST SWAP2 POP PUSH2 0x215 DUP3 PUSH2 0x1D6 JUMP JUMPDEST PUSH1 0x20 DUP3 ADD SWAP1 POP SWAP2 SWAP1 POP JUMP JUMPDEST PUSH0 PUSH1 0x20 DUP3 ADD SWAP1 POP DUP2 DUP2 SUB PUSH0 DUP4 ADD MSTORE PUSH2 0x237 DUP2 PUSH2 0x1FE JUMP JUMPDEST SWAP1 POP SWAP2 SWAP1 POP JUMP JUMPDEST PUSH32 0x4E487B7100000000000000000000000000000000000000000000000000000000 PUSH0 MSTORE PUSH1 0x12 PUSH1 0x4 MSTORE PUSH1 0x24 PUSH0 REVERT JUMPDEST PUSH0 PUSH2 0x275 DUP3 PUSH2 0x168 JUMP JUMPDEST SWAP2 POP PUSH2 0x280 DUP4 PUSH2 0x168 JUMP JUMPDEST SWAP3 POP DUP3 PUSH2 0x290 JUMPI PUSH2 0x28F PUSH2 0x23E JUMP JUMPDEST JUMPDEST DUP3 DUP3 MOD SWAP1 POP SWAP3 SWAP2 POP POP JUMP JUMPDEST PUSH0 PUSH2 0x2A5 DUP3 PUSH2 0x168 JUMP JUMPDEST SWAP2 POP PUSH2 0x2B0 DUP4 PUSH2 0x168 JUMP JUMPDEST SWAP3 POP DUP3 PUSH2 0x2C0 JUMPI PUSH2 0x2BF PUSH2 0x23E JUMP JUMPDEST JUMPDEST DUP3 DUP3 DIV SWAP1 POP SWAP3 SWAP2 POP POP JUMP JUMPDEST PUSH0 DUP2 SWAP1 POP SWAP3 SWAP2 POP POP JUMP JUMPDEST POP JUMP JUMPDEST PUSH0 PUSH2 0x2E3 PUSH0 DUP4 PUSH2 0x2CB JUMP JUMPDEST SWAP2 POP PUSH2 0x2EE DUP3 PUSH2 0x2D5 JUMP JUMPDEST PUSH0 DUP3 ADD SWAP1 POP SWAP2 SWAP1 POP JUMP JUMPDEST PUSH0 PUSH2 0x302 DUP3 PUSH2 0x2D8 JUMP JUMPDEST SWAP2 POP DUP2 SWAP1 POP SWAP2 SWAP1 POP JUMP JUMPDEST PUSH32 0x526566756E64206661696C656400000000000000000000000000000000000000 PUSH0 DUP3 ADD MSTORE POP JUMP JUMPDEST PUSH0 PUSH2 0x340 PUSH1 0xD DUP4 PUSH2 0x1C6 JUMP JUMPDEST SWAP2 POP PUSH2 0x34B DUP3 PUSH2 0x30C JUMP JUMPDEST PUSH1 0x20 DUP3 ADD SWAP1 POP SWAP2 SWAP1 POP JUMP JUMPDEST PUSH0 PUSH1 0x20 DUP3 ADD SWAP1 POP DUP2 DUP2 SUB PUSH0 DUP4 ADD MSTORE PUSH2 0x36D DUP2 PUSH2 0x334 JUMP JUMPDEST SWAP1 POP SWAP2 SWAP1 POP JUMP INVALID LOG2 PUSH5 0x6970667358 0x22 SLT KECCAK256 0xCB SDIV PUSH1 0x71 OR ISZERO CALLDATASIZE PUSH26 0x792A1B109C3A01BEB79447D6AEF4C07FF9800B79F7C538F06473 PUSH16 0x6C634300081A00330000000000000000 "
				},
				"gasEstimates": {
					"creation": {
						"codeDepositCost": "187600",
						"executionCost": "230",
						"totalCost": "187830"
					},
					"external": {
						"processNumber(uint256)": "infinite"
					}
				},
				"methodIdentifiers": {
					"processNumber(uint256)": "8bf709cf"
				}
			},
			"storageLayout": {
				"storage": [],
				"types": null
			},
			"userdoc": {
				"kind": "user",
				"methods": {},
				"version": 1
			}
		}
	}
}